:020000040800F2
:101000000040002075420008293E00082F3E0008DD
:10101000353E00083B3E0008413E0008000000004D
:10102000000000000000000000000000473E000833
:101030004D3E000800000000533E0008D93D000866
:10104000BD420008BD420008BD420008BD42000884
:10105000BD420008BD420008BD420008793A0008C0
:1010600000000000BD420008BD420008BD4200086B
:10107000BD420008BD420008BD420008000000005B
:10108000BD4200083D3B000800000000BD420008D2
:10109000693B0008BD420008BD420008BD4200088F
:1010A000BD420008BD420008BD420008193A0008D0
:1010B000493A0008000000000000000000000000A5
:0C10C000BD42000800000000BD42000816
:1011000000022100000403487964726120524550B6
:101110004541544455414C463432310000000000F2
:081120000000000000000000C7
:1011300010B5054C237833B9044B13B10448AFF311
:1011400000800123237010BD9400002000000000E7
:101150006C60000808B5034B1BB103490348AFF3AB
:10116000008008BD00000000980000206C600008AE
:10117000F8B506460F4614460025A54206DA336840
:10118000795D1B68304698470135F6E72046F8BD83
:101190007047174B5B68C3F3080337B5846803B91E
:1011A00072B6208863894FF6FF72ADF80620228957
:1011B00003449B1A9BB2B3FBF0F500FB15339BB2C3
:1011C00099420ADA0A4491B2B1FBF0F300FB131121
:1011D00089B263685B5CADF80630054B5B68C3F3AE
:1011E000080303B962B6BDF8060000B203B030BD13
:1011F00000ED00E0134982684B68C3F3080382B036
:1012000003B972B653891089984207D14B68C3F36A
:10121000080303B962B64FF0FF3010E013B913882A
:10122000013B9BB25268D35CADF80630054B5B685E
:10123000C3F3080303B962B6BDF8060000B202B0FA
:10124000704700BF00ED00E0074A81685368C3F3B0
:10125000080303B972B600238B605368C3F3080315
:1012600003B962B6704700BF00ED00E083685868BC
:101270007047BFF34F8F0549054BCA6802F4E0621F
:101280001343CB60BFF34F8F00BFFDE700ED00E0DD
:101290000400FA054FF090431869C0F3803070479E
:1012A000014B027119607047B0000020007920B135
:1012B000024B03EB4000B0F902007047B000002081
:1012C0000246007998B10A490A484B6A0068B3FBA4
:1012D000F0F3886A1B1AC72B03D891F82C30022B25
:1012E00004D8002081F82D0050737047012070470A
:1012F000B00000200000002010B50346007948B17E
:10130000054C94F82D0000B9587B19B1002284F8DF
:101310002D205A7310BD00BFB0000020007B704725
:101320000023037383607047024A92F82E30002B2B
:10133000FBD17047B0000020014B186B704700BF15
:10134000B000002010B572B60A4A0B48536A046810
:10135000106BB3FBF4F31B1A642B8ABF92F83400B2
:10136000002080F0010011B1012382F8343062B610
:1013700010BD00BFB000002000000020037C13B9A6
:10138000044B986B7047012B06BF024BD86B0020B3
:10139000704700BFB0000020054B007C93F800119F
:1013A00003F14002C033884214BF1046184670470C
:1013B000B000002072B6037C43B90B4A92F80101D9
:1013C000C0B209B182F8013162B67047012B09D170
:1013D000054B93F80201C0B20029F5D0002283F832
:1013E0000221F1E70020EFE7B00000200E4B9A6DDC
:1013F0006FF300029A650D4A0021D965C2F8C0104A
:101400004021D96592F800214AB909494A6942F058
:1014100040024A619A6D42F001029A657047012AC2
:10142000F8D10449F2E700BF00000240B0000020FC
:101430000038014000440040012303FA00F0014B52
:101440001860704700E100E008B5C368016AD96020
:10145000416A1961816A5961037C012B02460CBF04
:101460001C201B2000F1604303F56143102183F829
:101470000013FFF7E1FFD368DA6842F00402DA6094
:10148000DA6842F40052DA6008BD0B4B0B495A6A25
:101490000968B2FBF1F2D3F8041191420BD96FF055
:1014A00000418A4207D293F8082122B1002283F832
:1014B0000821C3F80C217047B00000200000002074
:1014C000024BB3F8100100B2704700BFB00000201B
:1014D0000B4B0C495A6A0868D3F80411B2FBF0F2BE
:1014E000521AC72A03D893F81221022A05D80020DD
:1014F00083F81301C3F80C0170470120704700BF47
:10150000B000002000000020044B93F81301C0B28B
:1015100011B1002283F81321704700BFB0000020F2
:101520000C4B0D495A6A10B50C68D3F80401D3F876
:101530001411B2FBF4F2121A8A4206D329B1002028
:1015400083F80801C3F80C0110BD93F80801C0B27C
:10155000FAE700BFB000002000000020034B00228B
:1015600083F80821C3F80C21704700BFB0000020A9
:101570000B4B0C495A6A0968B2FBF1F2D3F8181107
:1015800091420BD96FF000418A4207D293F81C2197
:1015900022B1002283F81C21C3F82021704700BF2C
:1015A000B000002000000020024BB3F8240100B27C
:1015B000704700BFB00000200B4B0C495A6A086806
:1015C000D3F81811B2FBF0F2521AC72A03D893F8D5
:1015D0002621022A05D8002083F82701C3F820011C
:1015E00070470120704700BFB000002000000020BD
:1015F000044B93F82701C0B211B1002283F82721D0
:10160000704700BFB00000200C4B0D495A6A10B55E
:101610000C68D3F81801D3F81411B2FBF4F2121AC3
:101620008A4206D329B1002083F81C01C3F82001A7
:1016300010BD93F81C01C0B2FAE700BFB000002053
:1016400000000020034B002283F81C21C3F8202156
:10165000704700BFB0000020214B22491A686FF389
:1016600009221A60204A5268B2FBF1F2013A9A62EA
:101670004FF0FF32DA621A6A6FF341021A621A6A95
:1016800042F020021A629969012262F30101996114
:101690009969022060F309219961996962F3071140
:1016A0009961996962F30F3199619A696FF38302C5
:1016B0009A619A696FF38B229A611A6A42F0010269
:1016C0001A621A6A42F010021A629A68052161F3DE
:1016D00006129A609A68042161F302029A607047C8
:1016E0000040014040420F0000000020CB0FB3EB50
:1016F000D07F01EBD17314BFA0EB630000EB63005C
:1017000090FBF1F0704770B5049C9DF814601D4685
:10171000401AE31A511A5843FFF7E8FF284486B1EC
:10172000AC4207DD844203DB85422C46B8BF044649
:10173000204670BD8442FBDC85422C46A8BF04468F
:10174000F6E70446F4E7194B13B5B3F85C118AB217
:10175000B3F86011044689B2801A814218DCB3F8EC
:10176000602192B2801A88B1B3F85E41B3F860117B
:101770000123A4B289B201934FF47A730093621AE1
:10178000A3F5FA63091BFFF7BEFF00B202B010BD5C
:10179000B3F86011121B89B28A4204DBB3F86021EE
:1017A00010FA82F0DFE70020F0E700BFB000002071
:1017B00008B5037903B3114901EB43035888B0F529
:1017C000787F19D0B1F85C21B1F85E3192B29BB24A
:1017D000D21AB1F85C31B1F85E1189B211FA83F313
:1017E0009B1ABF38584340F24161FFF77FFF104416
:1017F000BDE8084080B2A6E7002008BDB000002088
:10180000024BB3F81001C0F38D009CE7B00000203C
:10181000024BB3F8240180B295E700BFB00000206E
:1018200030B50023C55CCC5C202D09D9202C01D912
:10183000A54201D0002008E00133202BF2D1F9E7C6
:10184000202CF7D802B11360012030BD37B500233A
:10185000094C8DF8073003461A1A914203DC9DF8B3
:10186000070003B030BD9DF8072013F8015B6A4004
:10187000A25C8DF80720EFE784600008104A5368E7
:10188000C3F3080382B003B972B603894189994250
:1018900007D15368C3F3080303B962B64FF0FF30B2
:1018A0000CE04268D35CADF80630054B5B68C3F3CF
:1018B000080303B962B6BDF8060000B202B0704773
:1018C00000ED00E08068D9E7124A5368C3F30803CB
:1018D00010B503B972B603894189994207D153689B
:1018E000C3F3080303B962B64FF0FF3010E042685B
:1018F0000188D25C01339BB2B3FBF1F401FB1433DA
:101900000381044B5B68C3F3080303B962B610B2EA
:1019100010BD00BF00ED00E08068D5E7F8B587682E
:101920000E4695B20024A3B29D4201D82046F8BDD0
:101930003846FFF7C9FF0028F8DB30550134F2E7DD
:1019400038B585680C462846FFF798FFA04205D0B9
:10195000002805DB2846FFF7B7FFF4E7012038BD74
:101960000020FCE70D4B5B68C3F3080330B503B9F7
:1019700072B642890488531CB3FBF4F504FB15339B
:1019800004899BB29C421EBF4468A1544381034B0F
:101990005B68C3F3080303B962B630BD00ED00E035
:1019A00038B504464069FFF7DDFFE3681B681B0696
:1019B0000D4605D56069FFF787FFE368C0B2586040
:1019C0000A2D03D1236820469B689847034B044A9D
:1019D0005B6A1268B3FBF2F3E36138BDB00000202C
:1019E000000000200A4B5B68C3F3080303B972B61A
:1019F00002884389008913441B1AB3FBF2F002FBEF
:101A00001030034B5B68C3F3080303B962B6704739
:101A100000ED00E010B584682046FFF7E3FF0D4BB2
:101A20005B68C3F3080380B203B972B623892288C6
:101A3000884228BF084603449BB2B3FBF2F102FB85
:101A400011332381034B5B68C3F3080303B962B608
:101A500000B210BD00ED00E08068C3E708B50146A4
:101A60004869FFF7BFFF0028FAD108BD034BD3F840
:101A7000A821824218BFC3F8A8017047B000002017
:101A8000002808BF0130C0B20323B0FBF3F303EB1F
:101A90004303C01A014B83F8AC017047B00000202B
:101AA00073B53A4CD4F878311BB9A4F8AE3102B012
:101AB00070BD374D636A2A68B3FBF2F3D4F8B021E6
:101AC0009342F4D0C4F8B03180EAE073A3EBE07342
:101AD00081EAE170A0EBE17083421A46B8BF02468A
:101AE0008342CCBF181AC01A032AD4F878610BDDE0
:101AF000012E09D90123019326FA03F30093002351
:101B00001946FFF700FE361AD4F8B4312969AA69DC
:101B100068699B1B01FB0322A96AAB608A42A8BFCC
:101B20000A4649428A42B8BF0A46296AAA61591A36
:101B30004143E8682B6200FB0323EA6AE9610B4436
:101B40009342A8BF134652429342B8BF13466B62FA
:101B500042F2107293FBF2F3B4F8AE21D31A9BB2A7
:101B6000312BA4F8AE3101D832239EE7D4F86011AE
:101B7000D4F86421120442EA1142934297D9D4F86E
:101B80006031D4F86421C3F30F438EE7B000002026
:101B90000000002007B501234FF4FA61CDE90013DE
:101BA000002319466422FFF7AEFD034B80B2A3F871
:101BB000B80103B05DF804FBB000002038B52B4A33
:101BC0002B4CD2F86C11D2F870311B0243EA11632E
:101BD000C2F8BC31D2F87011D2F874311B0243EA5A
:101BE0001163C2F8143192F86A3182F8C031D2F828
:101BF0006011D2F864311B0443EA11431D49CB62E2
:101C000092F84401FFF73CFF92F8413182F8C1316C
:101C1000D2F88401D2F86011D2F864311B0443EA8F
:101C200011432821B3FBF1F364215843FFF75EFD14
:101C3000D2F88831E0602361D2F88C01D2F860518B
:101C4000D2F864311B0443EA15431425B3FBF5F3C2
:101C50005843FFF74BFD6061D2F86031D2F8641150
:101C6000C3F30F43A2F8AE3138BD00BFB00000206F
:101C700000000020002C0140074A136823F00C03E9
:101C800043F0080313604FF09042136823F44013AD
:101C900043F400131360704700040048074A1368B8
:101CA00023F0030343F0020313604FF090421368E4
:101CB00023F4402343F400231360704700040048DA
:101CC0004FF09042136823F4404343F40043136001
:101CD000136823F4403343F4003313607047094A18
:101CE000136823F00C0343F0080313604FF0904295
:101CF000136823F4401343F4801313604FF480639C
:101D00009362704700040048094A136823F00303F4
:101D100043F0020313604FF09042136823F4402312
:101D200043F4802313604FF400739362704700BF45
:101D3000000400484FF090431A6822F4404242F4F5
:101D400000421A601A6822F4403242F480321A606B
:101D50004FF480729A627047084A136823F00C03AC
:101D600043F004034FF0904113600B6823F44013D9
:101D700043F400130B600223936270470004004891
:101D8000084A136823F0030343F001034FF0904126
:101D900013600B6823F4402343F400230B600123FA
:101DA00093627047000400484FF090431A6822F491
:101DB000404242F480421A601A6822F4403242F4EF
:101DC00000321A6080229A6270470A4A136823F030
:101DD0000C0343F004031360022393624FF090421C
:101DE000136823F4401343F4801313604FF48063AB
:101DF00093627047000400480A4A136823F0030303
:101E000043F001031360012393624FF09042136883
:101E100023F4402343F4802313604FF40073936250
:101E2000704700BF000400484FF090431A6822F446
:101E3000404242F480421A6080229A621A6822F478
:101E4000403242F480321A604FF480729A627047D6
:101E500008B5FFF7BAFFFFF7CFFFFFF7E5FF034B2A
:101E600000225A639A63DA6308BD00BF002C014068
:101E7000F8B516469DF81C501C4679B9FFF7FCFED4
:101E80001A4F7863BCB9FFF709FFBE6305BBFFF7C4
:101E900017FF164BBDF81820DA63F8BD012902D1EF
:101EA000FFF71DFFECE7022902D1FFF755FFE7E737
:101EB000FFF78BFFE4E7012C02D1FFF725FFE4E7F2
:101EC000022C02D1FFF75CFFDFE7FFF795FFDCE7AD
:101ED000012D02D1FFF72EFFDBE7022D02D1FFF724
:101EE00063FFD6E7FFF7A0FFD3E700BF002C014058
:101EF0002DE9F74FDFF84CA19AF8C13104460E46A0
:101F000015463BB3DAF86021DAF864314FEA03484A
:101F100048EA1248DAF86421DAF868311B0443EA27
:101F20001243A8EB03081FFA88F808F10108814260
:101F30004FEA680822D385421BD3A1EB00092F1A70
:101F400009EB07024FF0040B90451DDBA64233D28C
:101F5000A5423BD99AF8C001002867D0A64204D117
:101F6000B54202D100252E462C46002108460F46D8
:101F70003BE0814204D00027B946E1E78542FAD828
:101F8000A4EB0609671BDBE7BBF1010BDED00023E6
:101F9000194601934846CDF80080FFF7B4FB0023B3
:101FA000814601933846CDF800801946FFF7ABFB18
:101FB000074609EB0002C7E7A54205D304EB090673
:101FC000B6B2E519ADB2C5E7A642C3D1A4EB090686
:101FD000B6B2E51BF6E727D103212B1B002B01DD51
:101FE000022702E00CBF032701279AF8AC31012B2E
:101FF0000DD0022B11D03BB9CDE900570B4632462C
:1020000001462046FFF734FF03B0BDE8F08F0346DA
:10201000CDE9005722463046F4E701910346009689
:10202000224639462846EDE70121D6E756EA040361
:1020300003D1002D0CBF03200020331B002BCADD71
:102040000221CAE7B00000202DE9F74F80468946FB
:10205000104672B62D4C2E4E656A3368B5FBF3F50B
:10206000652A4FF000034FF001074FF4FA6A194652
:1020700028BF50200197CDF800A06422C4F8C451B5
:10208000FFF741FB80B2A4F8B801B4F8B8319BB2B5
:10209000003B18BF012384F8C83194F8C83103F01D
:1020A000FF0B33BBC4F8CCB13760FFF787FD5A464E
:1020B00059465846FFF71CFF33684FF47A725A436B
:1020C0007368B3FBF2F3013BB3F1807F0AD24FF0A8
:1020D000E022F02153610F4B83F82310002393611A
:1020E0000723136133685D43656262B603B0BDE8E0
:1020F000F08F002384F8C131074BC4F8CC91C6F8A7
:10210000008084F8C071C3F82CA0D5E7B00000208F
:102110000000002000ED00E0002C0140044B93F88B
:10212000C8311BB10022114601208DE7704700BF66
:10213000B0000020094A92F8C8316BB1D2F8CC1136
:1021400051B1536A0648D2F8C4210068B3FBF0F3DA
:102150009B1A994200D8E1E7704700BFB000002009
:10216000000000204FF09042D36823F0300343F08A
:102170002003D36070474FF090431869C0F380008C
:102180007047024B1869C0F3801070470004004884
:10219000BFF34F8F0549064BCA6802F4E062134350
:1021A000CB60BFF34F8F00BFFDE700BF00ED00E045
:1021B0000400FA05030C03F1804303F5043300F037
:1021C0001F001968012202FA00F0084318607047E6
:1021D000084BDA68D10709D4DA68520708D4DB68FB
:1021E00013F0100F14BF0220032070470020704727
:1021F00001207047002002402DE9F0410C880025A5
:10220000032601270CB9BDE8F081E30735D51FFA95
:1022100085FE02684FEA4E0C06FA0CF322EA03022E
:1022200002608A79D0F8008002FA0CF242EA0802D1
:102230000260426807FA0EF822EA080242600A7950
:10224000D0F8048002FA0EF242EA08024260826884
:1022500022EA03028260CA79D0F808E002FA0CF29E
:1022600042EA0E028260C26822EA0303C3604B792D
:10227000C26803FA0CF31343C36064080135C1E775
:1022800007B50F4B4FF0904004226946CDE900237B
:10229000FFF7B2FF036A23F470630362036A036209
:1022A000084B102283F814234FF480121A60064A58
:1022B000136843F00103136003B05DF804FB00BF33
:1022C0000000020200E100E00040014013B50024DC
:1022D0008DF804408DF80610012469468DF80740FA
:1022E00000938DF80520FFF787FF02B010BDF8B509
:1022F00004299DF818609DF81C500171044612D104
:10230000874991F8D01101290BBF86498649C160E0
:10231000C1600CBF002101210174017C0171217990
:10232000032906D1A6E0002940F0A1807D48E060A5
:102330002174207C002840F0A180794901F14007F8
:1023400001F5EA7CC1F8D871C1F8DC018027C4F836
:1023500008C001F5F67CA1F8D471C1F8E4C1A1F878
:10236000E071C1F8E80101F5F07161616F48E16861
:10237000406800EB5200B0FBF2F28A60002B00F0E4
:102380009A804B6943F008034B610B69002E00F003
:10239000968043F400430B61CB68002D00F09280DF
:1023A00043F01403CB602279002A40F08E8060480D
:1023B000402301220221FFF789FF036A23F07063A3
:1023C0000362036A0362002D36D0237C544A82F8EC
:1023D000003123B9574A136843F480631360E368FC
:1023E0001A1D554B996D21F4804121F0100109040B
:1023F000090C9965996D9965996D022060F30D310D
:102400009965996D6FF38B219965996D6FF309212A
:102410009965996D41F080019965996D6FF3861109
:102420009965996D6FF3451199654021D9651A66D3
:10243000424A5A66FEF7DAFFE368DA6842F400526D
:10244000DA60DA6822621A695B69A362237C6262DD
:10245000012B0CBF1C201B2000F1604303F56143DE
:10246000102283F80023BDE8F840FEF7E5BF0129FC
:102470007FF455AF2C49E160012159E701287FF431
:1024800075AF274901F1400001F51B7CC1F87002CE
:1024900000208027C1F87402C4F808C001F5F67C5A
:1024A000A1F86C72C1F87CC2A1F87872C1F8800200
:1024B00001F51E7159E74B6923F0080364E723F423
:1024C000004368E743F06C036CE7012A0DD14FF03D
:1024D000904004230221FFF7F9FE036A23F470639E
:1024E0000362036A43F480736CE7032A7FF46BAFE3
:1024F0004FF090404FF4804301220221FFF7E6FEA7
:10250000426A22F070624262426A42F08072426223
:1025100000224FF400531146FFF7D8FE53E700BFE7
:10252000B0000020003801400044004000000020BE
:10253000000400480000014000000240700100203B
:1025400002464FF4804300214FF09040BEE64FF02A
:10255000904008B500224FF480430221FFF7B6FEF9
:102560004FF4005300220221FFF7B0FE436A23F02C
:1025700070634362436A4362436A23F470034362B5
:10258000436A436208BD2DE9F34104461E462368B1
:102590009B06DDE90878084615461BD56368DBB263
:1025A0008DF807309DF80730190602D49DF80730E2
:1025B00013B998F8003033B19DF80710FFF7D2F93E
:1025C000012388F80030134B134A5B6A1268B3FB8F
:1025D000F2F33B6023685A060BD56FF0400323608B
:1025E0002846FFF7FFF920B12846FFF76DF9C0B282
:1025F00060602368DB060AD523686368064A012306
:102600003370044B5B6A1268B3FBF2F33B6002B0B9
:10261000BDE8F081B00000200000002010B5041FCC
:102620002B4B03220C2C08D8DFE804F0171B1F23C8
:10263000272B2F34383C404448001C6962F34B245C
:102640001C61234B02295A6B00F01F003AD003296A
:102650003BD060F304025A6310BD1C6962F30E3470
:10266000EEE71C6962F3D134EAE71C6962F3944433
:10267000E6E71C6962F35754E2E71C6962F31A64E7
:10268000DEE71C6962F3DD64DAE7DC6862F302040A
:10269000DC60D6E7DC6862F3C504F9E7DC6862F366
:1026A0008814F5E7DC6862F34B24F1E7DC6862F339
:1026B0000E34EDE7DC6862F3D134E9E7DC6862F3FD
:1026C0009444E5E760F34912C5E760F38E22C2E760
:1026D000002401402DE9F843C0EB401400EB8404D2
:1026E00004EB8404640040F2D669DFF850800546AC
:1026F0000E461746A4B209FB00F94C451BDAB4FBA1
:10270000F5F0FFF720F8002809D1B8F1000F02DA40
:10271000338803B934800134A4B28046EDE7FADD92
:10272000B8F1000FF7DC3388002BF4D0013C3C807B
:102730000120BDE8F8830020FBE700BF18FCFFFF85
:1027400038B50E4C0125FEF787FF84F88452FFF759
:1027500097FD94F8853243B94FF4B963A4F88632F3
:102760004FF4BE63A4F8883238BD04F5227204F237
:1027700086212846BDE83840ACE700BFB000002005
:1027800010B50446FFF724FD00B904B910BDFFF7EA
:102790001FFD013CF8E7584A136813F0080318BFFF
:1027A0000823F0B518BF5360116818BF01238907CB
:1027B00003D4002B40F09780F0BD022353604F4AB2
:1027C0004F4DB2F88E02B2F88A42B2F88C32A2F8BB
:1027D0009002A2F89242A2F89432A96841F48001D2
:1027E000A96048F2E8014843D2F8545148BF00F6C6
:1027F000FF7043F23811A1EB20316FF0290091FBFB
:10280000F0F1D2F89802C5F30F260F31354689B2A0
:1028100000286ED0013DADB2622DD2F898C236B21A
:1028200009D806FB01F0C6F164070CFB0701323141
:10283000642091FBF0F1D2F84801C2F89812D2F866
:102840004C11D2F89C72090641EA1021622D40F623
:10285000E44000FB04F440F6FF70B4FBF0F401FB2D
:1028600004F44FF00A01B4FBF1F109D806FB01F0C2
:10287000C6F1640407FB04013231642091FBF0F1DE
:10288000C2F89C12622D4FF00A01B2F8A00201FBBF
:1028900003F308D8C6F16401734300FB01333233FC
:1028A000642193FBF1F3D2F84C11D2F85001D2F825
:1028B0005041A2F8A032000640EA1120D2F854118B
:1028C000090641EA14219BB240F6E44463432924FB
:1028D000B3FBF4F34FF47A7404FB1033B3FBF1F35E
:1028E000C2F8B43168E7064A936843F48003936002
:1028F00062E7C2F898128DE700000240B0000020A5
:10290000002401402DE9F843484C494BD4F8A42257
:102910009A4240F0888094F83931464DDFF81881AA
:102920006FF0100384F8393194F83A316FF04103B5
:1029300084F83A3194F83B316FF0520384F83B311C
:1029400094F83C316FF0210384F83C3100270423D4
:102950005F21032604F2391084F83D7184F83E317A
:1029600084F83F61FEF772FF344984F89801112220
:1029700004F5947002F06EFED4F89821D4F89C31DE
:1029800094F899111B0643EA12230133DAB284F852
:102990009921C3F3072294F89A1184F89A21C3F37A
:1029A000074294F89B1184F89B211B0E94F89C21FC
:1029B00084F89C31224B93F8FC3084F82A31214B67
:1029C0006B6003F188336B602B6943F002032B616A
:1029D000C5F814802B6943F040032B614FF0804011
:1029E000FFF7CEFE2B6967F341032B6104F5947961
:1029F0002B6959F8042B43F001032B614FF480102D
:102A000048F80720FFF7BCFE2B6904376FF300037B
:102A1000802F2B61EE60EBD12B6943F080032B619B
:102A20000023C4F8A832BDE8F88300BFB00000203E
:102A3000EFBEADDE00200240007C0008846100088B
:102A4000000F00082301674538B5154C1549D4F827
:102A50009831D4F89C51802204F594702D0645EAF3
:102A6000132502F0F7FD012384F88532EBB294F8C8
:102A7000992184F89931C5F3072394F89A2184F8B1
:102A80009A31C5F3074394F89B2184F89B312D0EAE
:102A900094F89C3184F89C51BDE8384032E700BF7F
:102AA000B0000020846100082DE9F8439E4C9F4F40
:102AB000626A3B68B2FBF3F80646206803680121AE
:102AC0009B6B98478146206803681B6B98470546B7
:102AD000B9F1000F00F01B810378C4F8AC82C82B59
:102AE00040F0AB808378162B40F0A780417802300D
:102AF0000139FEF7ABFE69786B185B78834240F0D2
:102B0000E580072940F29980687995F804C0EB7850
:102B1000420142EADC02C2F30A0243EA0C23E280E9
:102B2000EA7995F806C0C3F30A03A380930243EA47
:102B30008C0343EA9013287AC3F30A032381C30169
:102B400043EA5203C3F30A030C2963811ED995F8A3
:102B500009C04FEA0C1242EA1012C2F30A02E87AE4
:102B6000A281AA7A430243EA420343EADC13C3F395
:102B70000A03E3812B7B9A0142EA9002C2F30A0224
:102B800022826A7B5B0943EAC2036382122920D94D
:102B9000287C95F80FC0AA7B430143EADC03C3F30A
:102BA0000A0342EA0C22E382AB7C95F811C0C2F31F
:102BB0000A02A2829A0242EA8C0242EA9012C2F30C
:102BC0000A022283EA7C5B0843EAC213C3F30A03C6
:102BD000638317291DD9287DEB7CA97D020142EA78
:102BE0001312C2F30A02A2836A7D4B0243EA420334
:102BF00043EAD013C3F30A03E383EB7D9A0142EA6D
:102C00009102C2F30A0222842A7E5B0943EAC203CC
:102C10006384636A3A68B3FBF2F394F92C20A362ED
:102C200094F82C30002AA4BF013384F82C30002300
:102C300084F8B032012384F82D30FEF7D7FB737B84
:102C400094F82D20656AA16A134373733B68B5FB42
:102C5000F3F5D4F8BC31002B49D03369EB1A132BB0
:102C600019D96A1A642A35613BD8336830469B68A3
:102C7000984748B194F8B132002B32D004EB4303AB
:102C80005B88B3F5787F2CD9B368D4F8BC210133C5
:102C90009342B36028D2D4F8143140F6B832002BF6
:102CA00008BF1346A26AA91A994222BF00233373B0
:102CB000B360AA4208D96FF000439D4204D2337B2F
:102CC00013B100233373B360BDE8F88394F8B032D6
:102CD000032B95BF0133002384F8B03284F82C30E5
:102CE000ABE70023B360D6E701233373D3E7626A0F
:102CF0003868B2FBF0F2521AC72A05D894F82C3083
:102D0000022B94BF00230123327B1343EDE7D4F859
:102D1000AC32A8EB03031D2B91D92068C4F8AC8218
:102D200003681B6C984788E7B00000200000002073
:102D300070B50446C068FEF715FE204B0D4693F8AB
:102D4000B222002AFBD172B693F82E201AB11C4A87
:102D5000D268D20728D401224FF0904183F82E2068
:102D60000B6823F0300343F020030B60144B196809
:102D70001A626FF3000119600021596299605A616B
:102D8000DA68596322F00202DA60DA6822F004029B
:102D9000DA606FF001021A61DA6842F00102DA606B
:102DA0001A6842F001021A6062B60A2D05D1236842
:102DB00020469B68BDE87040184770BDB0000020F9
:102DC0000040014008B50122042302214FF0904049
:102DD000FFF77CFA0E4B0F4844229A6030221A62A9
:102DE0006FF004021A61DA6842F00402DA600A4AFB
:102DF0004068D2F8B422510022F000420244B2FBF3
:102E0000F1F25A635A6942F001025A6108BD00BFEB
:102E10000040014000000020B000002070B51E4DB1
:102E200005F14003C5F8BC328023A5F8B832A5F8F7
:102E3000C43205F531730026C36005F52E7305F520
:102E4000F672C5F8C062C5F8CC6283600C46C5F85E
:102E5000C822C5F8B412FEF7FFFB104B43F27822EC
:102E60009A610F4A9E621E62516801EB5402B2FBE6
:102E7000F4F2013ADA62620024F000440C44B4FB3C
:102E8000F2F45C6385F88462FFF7FAF972B6FFF733
:102E900099FF62B670BD00BFB00000200040014045
:102EA00000000020F7B5574F4160B3F5005F1646AC
:102EB0001C468260C360C7F8D012C7F8D422C7F896
:102EC000D8327DD0B3F5804F7AD0402B0CBF402054
:102ED0000020A4F14002D2F1000C4CEB020CB4F53E
:102EE000005FC7F8DC02C7F8E0C26BD0B4F5804FD2
:102EF0006AD0402C0CBF06230023434DC7F8E432B0
:102F00002A6822EA00022A606A6822EA000003F0C6
:102F100003026860920098080F25954002283B4BF9
:102F20006FEA05050CFA02F257D003285CD001289D
:102F30004CD0986805409D60986802439A600B6881
:102F4000334A6FF309230B60324B5B68B3FBF2F338
:102F5000013B8B624FF0FF33CB62CB6843F0010340
:102F6000CB600B6843F001030B6030464FF0022347
:102F70006946CDE90043FFF73FF9274A102382F85D
:102F800011331120FEF758FA002382F80733072087
:102F9000FEF752FA3369A4B234EA03030CBF0123EB
:102FA000002387F8E83297F8853223BB4FF4B953F2
:102FB000A7F8EA324FF4BE53A7F8EC3203B0F0BDE5
:102FC000204686E70D2398E70E2396E7D86805404C
:102FD000DD60D8680243DA60B1E7186905401D6119
:102FE000186902431A61AAE7586905405D6158698A
:102FF00002435A61A3E7094A0420911EFFF76AFBC6
:10300000DCE700BFB00000200004014000000140E8
:1030100000093D000000002000E100E09C030020CA
:1030200007B50B46024601910848802102F0C0FC1A
:103030007F28024607D8054901F18200FEF798F87B
:1030400003B05DF804FB0020FAE700BF9E030020F8
:103050000EB403B503A951F8040B0191FFF7E0FF8B
:1030600002B05DF804EB03B070472DE98048BF4C17
:10307000A1B094F8932100210420FEF7E5FF002081
:10308000FEF788FDBA480025FEF7F0FCFFF75FFA6F
:1030900001230295019500954FF49642194604F5D7
:1030A0005C70FFF724F904F55C7B0895099507959A
:1030B0000695B04ED4F824803768FFF73BF85846A1
:1030C000FEF72AFCB0F10009C0F20684D4F8A83259
:1030D0002BB1636A3268B3FBF2F3C4F8A832079BE2
:1030E000B9F1400FC8BF43F001030793099B2BB907
:1030F000079B1BB1FFF712F8079B0993B9F10A0F61
:1031000040F03F84069B0D2B40F04284CDF8189090
:103110000025CEE7A1EB08012A7E002331440FA849
:103120000F9302F097FA2A460F9B93493846FFF710
:103130008FFF1C3500F047BC9048FEF771FB60B173
:103140008F4B02938F4B90490320CDE9000304235A
:103150008E48FFF77DFF00F042BC8D48FEF760FB14
:1031600038B1FFF771FC8B498848FFF771FF00F019
:1031700036BC8948FEF754FB074640B1874983486F
:10318000FFF766FF8148FEF769FCFEF772F8844896
:10319000FEF746FB0546002800F00B8394F8440137
:1031A000FEF76EFCD4F86011D4F864311B0443EAD6
:1031B00011437C493846CB620123394684F8C0313B
:1031C000FEF796FED4F84821D4F84C3105971B063B
:1031D00043EA12230A93D4F84C21D4F850311B0649
:1031E00043EA12230B93D4F85021D4F854311B0630
:1031F00043EA12230C93D4F86421D4F8683194F88C
:1032000044611B0443EA12430D9376B2B846B946B3
:10321000FEF790FFFFF7BFFA564B626A1B68B2FBDE
:10322000F3FA5846FEF778FB7828054600F0378217
:1032300020F010031BB2082B00F031821B2800F095
:103240002E827F2800F02B82002840F38983B9F179
:10325000630F40F0BB803E2800F3628139280FDC09
:103260002C2820D018DC222800F0A780272873D033
:1032700000230593B6E0DDF814A0CDF814A0C7E74D
:10328000A0F13A03042B00F24B81DFE813F08D002C
:103290004600340049013D002E2823D02F28E7DDC9
:1032A0000023059341E1D4F84C21D4F850311B069A
:1032B00043EA1223013BDAB294F84D1184F84D2110
:1032C000C3F3072294F84E1184F84E21C3F307424A
:1032D00094F84F1184F84F211B0E94F8502184F874
:1032E0005031C5E7D4F84C21D4F850311B0643EADD
:1032F00012230133DFE7D4F84C21D4F850311B06F8
:1033000043EA12230A3BD6E7D4F84C21D4F85031D3
:103310001B0643EA12230A33CDE7D4F85021D4F830
:1033200054311B0643EA1223013BDAB294F85111DF
:1033300084F85121C3F3072294F8521184F85221E2
:10334000C3F3074294F8531184F853211B0E94F8E9
:10335000542184F854318BE7D4F85021D4F85431F7
:103360001B0643EA12230133DFE700BFB000002051
:103370000462000800000020836800088C680008D0
:1033800007110008000221009468000820040020B2
:10339000B4680008C1680008D6680008DD68000845
:1033A000EE680008002C0140D4F85021D4F85431C4
:1033B0001B0643EA12230A3BB7E7D4F85021D4F89E
:1033C00054311B0643EA12230A33AEE70023059368
:1033D000B9F1760F68D17B2D5DD029DC5B2D32D021
:1033E0005D2D4FD009F0DF03442B40F0DC80D4F892
:1033F0006001D4F864314FEA034848EA1048D4F831
:103400006431D4F86801000440EA1340B9F1640F54
:10341000A8EB00081FFA88F803BF002211464046B7
:1034200042461CBF41460020FEF762FD6427BAE019
:103430007D2DD7D1D4F84821D4F84C311B0643EA6E
:1034400012230A3307E0D4F84821D4F84C311B0684
:1034500043EA1223013BDAB294F8491184F8492176
:10346000C3F3072294F84A1184F84A21C3F30742B0
:1034700094F84B1184F84B211B0E94F84C2184F8DE
:103480004C31AFE7D4F84821D4F84C311B0643EA5D
:1034900012230133DFE7D4F84821D4F84C311B065E
:1034A00043EA12230A3BD6E709F0DF03442B40F03E
:1034B0004C827B2D2BD00CDC5B2D15D05D2D91D15A
:1034C000D4F86421D4F868311B0443EA1243013371
:1034D00012E07D2D86D1D4F86421D4F868311B0424
:1034E00043EA12430A3307E0D4F86421D4F8683180
:1034F0001B0443EA1243013B9AB2B4F86611A4F8E4
:1035000066211B0CB4F86821A4F868316AE7D4F886
:103510006421D4F868311B0443EA12430A3BEBE709
:103520000023392D05933FF75DAF012741F2883322
:10353000392201970093302100232846FEF7E3F853
:1035400064231FFA80F80197009330210023284656
:10355000FEF7D9F8002287B211464046FEF7C8FCB4
:10356000B9F1700F7FF43EAF2D2D03D03D2D01D06A
:103570002B2D18D1002211461046F6B2FEF7B8FCEA
:103580002D2D0CBF06F1FF36013676B2002E31DD4F
:10359000042EA8BF0126F0B20022FEF771FA1146F0
:1035A0004046FEF7A5FC762D26D100221146104696
:1035B000FEF79EFC0027B846A946059BAAEB03032D
:1035C000B3F5FA7FFFF457AEB9F1760F25D1D4F8F1
:1035D0004821D4F84C31AF49AF481B0643EA1223C7
:1035E0000193D4F89C3200935246B4F89232FFF71C
:1035F0002FFD42E60326CEE7632D01D0702D02D1C8
:103600005FFA85F9D9E7642DD7D1B9F1640F0CBF02
:103610004FF044094FF06409CFE7B9F1630F20D1AF
:10362000D4F8B4319D4900935246B4F894329A4884
:10363000FFF70EFD9848FEF711FAD4F84C11D4F8B4
:103640005021D4F85001D4F85431009712061B06CB
:1036500042EA1122924943EA10238F48FFF7F8FC0F
:103660000BE6B9F1700F04D18E49009733465246EC
:10367000F3E709F0DF03442B0BD1D4F86421D4F82D
:10368000683189491B0443EA1243009352463B4682
:10369000E3E7864980485246FFF7DAFCEDE5002271
:1036A00011461046FEF724FCD4F84821D4F84C31DA
:1036B0007F491B0643EA12225846FFF7C9FC5846C9
:1036C000FEF7CCF9D4F84C01D4F85021D4F850517D
:1036D000D4F85431D4F86471D4F86811090441EA7B
:1036E000174112061B0643EA152342EA10220091F5
:1036F00058467049FFF7ACFC5846FEF7AFF9324622
:103700006D495846FFF7A4FC9DF8283094F84921EC
:1037100084F849310A9B94F84A21C3F3072384F8BB
:103720004A3194F84B31002384F84B3194F84C31F2
:10373000002384F84C319DF82C3094F84D2184F806
:103740004D310B9B94F84E21C3F3072384F84E317F
:1037500094F84F31002384F84F3194F8503100230E
:1037600084F850319DF8303094F8512184F851316B
:103770000C9B94F85221C3F3072384F8523194F838
:103780005331002384F8533194F85431002384F8E2
:103790005431BDF83430B4F86621A4F866311B0CFE
:1037A000B4F86821A4F8683194F84401FEF768F988
:1037B00015E142490F904F698FB10EAA10A8FEF78C
:1037C0002FF81C31A8B13E4B3E48FF1A1C2303FBC7
:1037D0000505ADF83C7095F89C31ADF83E300F9F73
:1037E0005FEA174807D138492B4810AAFFF730FC89
:1037F000F5E00135DFE70E98344D10AB0130184489
:1038000001F0F2FE42460F900FA915FA87F001F081
:1038100021FF636A2E493268B3FBF2F305F512709B
:10382000C4F8A83210AA0F9BFFF712FCFEF7C6F9E6
:10383000284BC4F8A432D2E029F010031BB2082BA5
:103840005FFA89F305D0B9F11B0F02D0B9F17F0FF0
:1038500001D10693C3E0B9F1200F00F08680B9F1E1
:10386000090F00F08280B9F13E0F02D10DB9069325
:103870004EE43D2D06933FF61CAC05F18003B9F1F3
:10388000090F6B4408BF4FF02009013503F8409C35
:10389000ADB20EE4F5680008200400201F6900089E
:1038A0003E6900086469000882690008B069000880
:1038B000D7690008F56900082A6A0008086200084C
:1038C000007C0008846000084A6A0008D8010020D3
:1038D0005B6A0008EFBEADDE079B63B9B8FBF7F784
:1038E000089BFA1A40F6B7339A4204D943483E215E
:1038F000FEF756F80897D4F8A432414A93420BD108
:10390000D4F8A82242B1636A3168B3FBF1F39B1A81
:10391000C82B01D9FEF7F6FFFEF73DFF079B002BF2
:103920007FF4C7AB636A3268B3FBF2F34FF42F72D4
:10393000B3FBF2F102FB1133C72B94BF94F8930150
:103940000798FEF727F9FFF7B4BBB9F1700F7FF4C2
:1039500049AD2F2D7FF708AE392D7FF7E6AD05E68F
:10396000B9F1630F7FF434AD3CE5002D3FF47FAF38
:10397000069A202A02D0092A7FF47BAF0693FFF72C
:1039800098BBB9F10D0F03D0B9F1000F7FF454AF1C
:103990005FFA89F3069305F180036B44002203F874
:1039A000402CE5B1174810A9FDF73AFF00283FF475
:1039B000C3AB15491148154E154DDFF85880FFF778
:1039C00047FB06F51277696900297FF4A3AB0B4822
:1039D0000D21FDF7E5FF09480A21FDF7E1FF074842
:1039E0000D21FDF7DDFF05480A21FDF7D9FF03484A
:1039F0003E21FDF7D5FFFFF78BBB00BF2004002061
:103A0000EFBEADDE6C68000871680008D8010020C8
:103A100008620008007C000807B50949094801F55B
:103A20008563019301F13803009301F5F07201F20F
:103A3000011301F5EA71FEF7A6FD03B05DF804FB82
:103A4000B00000200038014007B50949094801F2DB
:103A50002943019301F13C03009301F51E7201F526
:103A6000817301F51B71FEF78EFD03B05DF804FB59
:103A7000B0000020004400402E4B30B5D3F8D012E7
:103A8000D3F8D4424A6AB3F8D8022469A04306D0D6
:103A900093F8E81269B9002283F8E82230BD93F860
:103AA000E80200F0FF0210B94A6283F82A240122DA
:103AB000F2E793F82A140029EDD1A2F54861B1F597
:103AC000AF5FE8D892B21C48A3F81021B3F81021D8
:103AD000596A0068B1FBF0F193F91201C3F80411BF
:103AE00093F81211B3F8EA52B3F8EC4200284FF001
:103AF0000100A8BF013183F81301D3F8BC01A8BFAE
:103B000083F81211002192B283F82B1450B1AA420B
:103B10000CD3A2420AD8D3F80C2101329042C3F848
:103B20000C21B8D8012283F80821B4E7C3F80C119E
:103B3000B1E700BFB000002000000020094AD2F821
:103B4000D0321969C9070CD56FF00101196192F8DB
:103B50002A34072B9FBF92F82A340133DBB282F854
:103B60002A347047B000002038B5884C884A94F851
:103B70008432002B4AD0516B40F69703994205D905
:103B8000936BA3F54872B2F5AF6F0DD994F82C344E
:103B9000032B95BF0133002384F82C3484F826319D
:103BA0000023C4F8203138BD9BB27A4DA4F82431EB
:103BB000B4F82431626A2D68B2FBF5F294F926510B
:103BC000C4F8182194F82621B4F88602B4F88812B3
:103BD000002DA4BF013284F82621002284F82C2471
:103BE000012284F82721D4F8BC219BB252B1834230
:103BF000D6D38B42D4D8D4F8203101339A42C4F8BA
:103C00002031D0D8012384F81C31CCE71169C807D2
:103C100010D5D168C9070DD56FF00101116194F875
:103C20002E2002F0FF0102BB84F8B212BDE838403A
:103C3000FFF7C8B813699D0752D5D36898074FD5C9
:103C40006FF0020313614FF090431A6994F82D341A
:103C500003F0FF01002B6ED194F82D340133DBB259
:103C600084F82D3484F82E149DE794F82D2402F066
:103C7000FF01EAB904F53170FDF7B4FE002814DD48
:103C800004F53170FDF720FE0123C0B284F82E0444
:103C900084F82E3094F82D340133DBB284F82D34BF
:103CA0004FF0FF333A4A53637DE784F82E10F7E76D
:103CB00094F82D24082A10D894F82E3494F82E2441
:103CC000520884F82E2494F82D24013203F00103C5
:103CD000D2B2013B84F82D24E4E784F82D34E1E7E7
:103CE0002B4B1A6951077FF55EAFDA6852077FF5F3
:103CF0005AAF6FF002021A61DA6842F00202DA602B
:103D0000DA6822F00402DA606FF004021A61DA68FD
:103D100022F00102DA606FF001021A6100229A605B
:103D20001A624FF09042136823F0300313600123AE
:103D300084F8B23237E794F82D34082B20D894F861
:103D40002E345B0884F82E34530742BF94F82E3487
:103D500043F0800384F82E3494F82D340133DBB221
:103D600084F82D3494F82D34082B7FF61CAF94F88A
:103D70002E140948FDF7F6FD002384F8343012E7CD
:103D8000002384F82D3484F8B2324FE7B0000020CD
:103D90000040014000000020680300200C4AD2F8D7
:103DA000301408B5034611B90A49C2F83014D2F8E4
:103DB0003004EFF3088103448B4206D901F018FC6C
:103DC0000C2303604FF0FF3008BDC2F83034FBE72E
:103DD000B0000020F4040020124B5A6A01325A62EB
:103DE00093F8C821E2B193F8C821012A09D102222F
:103DF00083F8C821B3F8B8010022114680B2FEF75B
:103E000077B893F8C821022A0AD1012283F8C82181
:103E1000B3F8B811B3F8B82189B292B20020EEE736
:103E2000704700BFB000002008B5FEF7B1F908B533
:103E3000FEF7AEF908B5FEF7ABF908B5FEF7A8F93D
:103E400008B5FEF7A5F908B5FEF7A2F908B5FEF723
:103E50009FF908B5FEF79CF9124B1A6842F001026F
:103E60001A601A689207FCD55A686FF301025A600B
:103E70005A6812F00C0FC2F38101F9D11A6822F0CE
:103E8000867222F480321A6041F610725960DA624A
:103E90004FF480121A634FF41F029A60024B034AD8
:103EA0009A6070470010024000ED00E0001000082A
:103EB00010F8012B11F8013B012A28BF9A42F7D0D4
:103EC000D01A704700000000000000000000000051
:103ED00001F0FF01102A2BDB10F0070F08D010F8BB
:103EE000013B013A8B422DD010F0070F42B3F6D1BF
:103EF000F0B441EA012141EA014122F007047FF0D8
:103F000000070023F0E80256083C85EA010586EA2E
:103F1000010685FA47F5A3FA87F586FA47F6A5FA6A
:103F200087F68EB9EED1F0BC01F0FF0102F0070276
:103F300032B110F8013B013A83EA010313B1F8D121
:103F40000020704701387047002D06BF3546033802
:103F5000073815F0010F07D1013015F4807F02BF3B
:103F6000013015F4C03F0130F0BC0138704700BF8C
:103F700053B94AB9002908BF00281CBF4FF0FF31D0
:103F80004FF0FF3000F074B9ADF1080C6DE904CECC
:103F900000F006F8DDF804E0DDE9022304B0704724
:103FA0002DE9F047089E0D4604468846002B4DD16A
:103FB0008A42944668D9B2FA82F252B101FA02F307
:103FC000C2F1200120FA01F10CFA02FC41EA0308D7
:103FD00094404FEA1C45210CB8FBF5FE1FFA8CF704
:103FE00005FB1E8341EA03430EFB07F199420BD9FF
:103FF0001CEB03030EF1FF3080F01E81994240F26A
:104000001B81AEF1020E63445B1AA4B2B3FBF5F060
:1040100005FB103344EA034400FB07F7A7420AD923
:104020001CEB040400F1FF3380F00881A74240F24A
:10403000058164440238E41B40EA0E4000211EB1B1
:10404000D4400023C6E90043BDE8F0878B4208D97D
:10405000002E00F0EE800021C6E900050846BDE80C
:10406000F087B3FA83F100294AD1AB4202D38242EE
:1040700000F2F980841A65EB030301209846002EB4
:10408000E2D0C6E90048DFE702B9FFDEB2FA82F209
:10409000002A40F09180A1EB0C054FEA1C471FFA63
:1040A0008CFE0121B5FBF7F307FB1350250C45EA05
:1040B00000450EFB03F0A84208D91CEB050503F1EF
:1040C000FF3802D2A84200F2CB8043462D1AA4B298
:1040D000B5FBF7F007FB105544EA05440EFB00FE64
:1040E000A64508D91CEB040400F1FF3502D2A64511
:1040F00000F2BB802846A4EB0E0440EA03409EE792
:10410000C1F120078B4022FA07FC4CEA030C20FA8D
:1041100007F405FA01F31C43FD404FEA1C4900FA7D
:1041200001F3B5FBF9F8200C1FFA8CFE09FB1855BA
:1041300040EA054508FB0EF0A84202FA01F20BD94D
:104140001CEB050508F1FF3A80F08880A84240F298
:104150008580A8F1020865442D1AA4B2B5FBF9F0D8
:1041600009FB105544EA054500FB0EFEAE4508D993
:104170001CEB050500F1FF346CD2AE456AD902385C
:10418000654440EA0840A0FB0294A5EB0E05A54259
:10419000C846A64656D353D05EB1B3EB080265EBD2
:1041A0000E0505FA07F722FA01F3CD401F43C6E9D1
:1041B00000750021BDE8F087C2F1200320FA03F169
:1041C0000CFA02FC25FA03F395400D434FEA1C4715
:1041D0001FFA8CFEB3FBF7F107FB11302B0C43EAFF
:1041E000004301FB0EF0984204FA02F408D91CEBDC
:1041F000030301F1FF382FD298422DD902396344CD
:104200001B1AADB2B3FBF7F007FB103345EA0345C9
:1042100000FB0EF3AB4208D91CEB050500F1FF389B
:1042200016D2AB4214D902386544ED1A40EA014176
:1042300038E73146304607E78646E5E61846FAE6AF
:104240004B45A9D2B9EB020864EB0C0E0138A3E789
:104250004046EAE7204694E74146D1E7D0467BE76F
:10426000023B654432E7084609E76444023842E706
:10427000704700BF002103E00B4B5B5843500431F3
:104280000A480B4B42189A42F6D30A4A02E000232E
:1042900042F8043B084B9A42F9D3FFF7DDFD01F0E9
:1042A000ADF900F00DF87047886C000800000020A0
:1042B0009400002094000020F4040020FEE7000099
:1042C0002DE98048464B474D40F253121A602B6847
:1042D00043F001038BB02B602B68C3F340029F07B0
:1042E0000792F9D56B686FF301036B606B6813F08D
:1042F0000C0FC3F38102F9D12B6823F0867323F4EA
:1043000080332B6041F610736A60EB624FF48013C8
:104310002B634FF41F03AB602B6843F001032B604A
:104320002B689E07FCD56B686FF310436B606B685E
:104330000D2262F395436B606B68012262F35E733A
:104340006B60EB6A6FF31A63EB622B6843F0807368
:104350002B602B689C01FCD56B686FF307136B60B7
:104360006B686FF3CD236B606B686FF30A236B6030
:104370006B6D43F030036B656B68022262F30103DF
:104380006B606B68C3F38103022BFAD16B6D164F20
:104390006FF305136B656B6813F00C0FC3F38102A9
:1043A00026D0022A40F01C836868EB6A002BC0F319
:1043B0000040C0F21F836B686A6812F0C04FC3F3FD
:1043C0008343C2F3417102D10F2B40F00B830133C1
:1043D00003EB0113002840F00783044A534310E025
:1043E00000200240001002400000002000093D00B3
:1043F0006B6D980540F1F4822B6B990140F1F082CE
:10440000BD4B7B606A68BD4B7E68DFF8F482BD4CB3
:10441000C2F3031213444FF01C1093F8E435DE404E
:10442000B94B7E60C8F80830FDF7C4FE4FF4C010E9
:10443000FDF7C0FEB548FDF7BDFEB548FDF7BAFE75
:10444000B448FDF7B7FEB448FDF7B4FEB348FDF736
:10445000B1FEB348FDF7AEFEB248FDF7ABFEB24881
:10446000FDF7A8FEB148FDF7A5FE4FF4A010FDF73B
:10447000A1FEAF4A136823F00C0343F0040313605A
:10448000022393614FF09043196821F4401141F4E5
:10449000801119604FF480619962116821F0030165
:1044A00041F001011160012191611A6822F440225A
:1044B00042F480221A604FF400729A621A6822F461
:1044C000404242F480421A6080229A611A6822F4C3
:1044D000403242F480321A604FF480729A62954AF8
:1044E000002353639363D3634FF47A72B6FBF2F6FF
:1044F000013EB6F1807F3960636208D24FF0E0225E
:10450000F021566188F82310936107231361F0238B
:1045100088F8233062B6874EDFF8148241F2883380
:10452000F3624FF0000946F66803C6F82890B361BD
:104530006823F361B36943F00803B361B36943F4DB
:104540000063B361F36943F00803F361336843F038
:1045500080033360736C322262F3070373640223B7
:10456000404619464A46FDF7B1FE01234A4602215C
:10457000FDF7ACFE4FF0904080234A460221FDF744
:10458000A5FED8F8203023F0F003C8F82030D8F882
:10459000203043F02003C8F82030D8F8203023F032
:1045A0000F03C8F82030D8F8203043F00203C8F8D1
:1045B0002030036A23F070430362036A43F0005320
:1045C00003624A464FF480630221FDF77FFE4FF4F9
:1045D00000734A460221FDF779FE4A464FF4807384
:1045E0000221FDF773FE436A23F470634362436A5A
:1045F00043F400734362436A23F0F0034362436A67
:1046000043F020034362436A23F00F034362436A8B
:1046100043F002034362336A43F001033362336AB7
:1046200043F010033362336A43F480733362336AB6
:1046300043F004033362336A43F040033362336A66
:1046400043F480633362336843F001033360736C77
:1046500043F400437364736943F001037361FDF72E
:10466000F7FB032140234A46FDF730FE08234A4664
:104670000321FDF72BFE304B9A6822F4804222F092
:1046800010021204120C9A609A689A609A6869F390
:104690000D329A609A68012161F38B229A609A68C0
:1046A00061F309229A609A6842F080029A609A68DF
:1046B00069F386129A609A6842F020029A60032693
:1046C0001E4ADE601A611E4A5A616B6843F4404319
:1046D0006B606B6843F080536B601A4D6B6843F4FA
:1046E00080736B60AB6843F00203AB60AB6869F347
:1046F000CB23AB6028E000BF006CDC0284600008C4
:1047000000ED00E0B00000200010000811001400CF
:1047100012001400090018000E00180011001C00FF
:104720000B00180001001C0004001C001000180001
:1047300000040048002C0140000002404C240140CD
:104740003A03002000240140EB6A4FF0020868F3AE
:104750001753EB623046FDF761FF41460620FDF737
:104760005DFF31461020FDF759FFAB6843F40003AD
:10477000AB60AB6869F35963AB60AB6843F460232B
:10478000AB60AB6843F48013AB60AB6843F48073F9
:10479000AB60AB6843F00103AB60AB6843F0080368
:1047A000AB60AB681B07FCD4AB6843F00403AB60A1
:1047B000A54B9A685607C2F38005FAD4A349A44EC4
:1047C0008A6842F001028A609A6842F480029A6024
:1047D000A04AC4F8A422316973691B0643EA112375
:1047E000F17D032902D1981A454245419A485F213B
:1047F000FDF72CF88DF8270096F870309DF82730DB
:1048000096F870309DF82720934240F00E81002DDD
:1048100000F00B8180228E49904800F01BFF01239D
:104820008F4A84F8853292F8FC20B3789A4201D0FE
:10483000FEF768F80025C4F8A452FDF7BFF92A4630
:10484000294604234FF09040FDF740FD2A464023BF
:10485000294600F58060FDF739FD8248824DFDF75D
:1048600005F94FF00A08FDF77DFCEB6823F440538F
:1048700043F40053EB6094F84231022B03D094F8D8
:104880004231032B02D10220FDF75AFE94F8932106
:1048900096210220FDF7D8FB666A3B68B6FBF3F66B
:1048A000636A3A68B3FBF2F39B1B022B0CD8FDF74B
:1048B00062FC0028F4D194F84231032B00F0B88058
:1048C00094F84231032BEBD0636A3A68B3FBF2F3FE
:1048D0009B1BB3F5FA7F80F0D180FDF72BFCFDF731
:1048E0004AFC002840F0E484FDF74BFC002840F02F
:1048F000DA8494F84231022B03D094F84231032B2E
:10490000E2D1FCF7C7FC0028DED0FDF72BFC564AAD
:10491000D36823F4405343F40053D360FDF717FEEC
:10492000FDF7FCFBFDF74AF900235048C4F8A43218
:10493000FDF79CF894F84231002B00F0328194F896
:104940004231022B00F02D8194F84231012B40F0CE
:10495000E48194F8D03113B9022384F8D03194F86B
:104960004211D4F84421D4F8483103294FEA0363B3
:1049700018BF042153EA122300F0D981D4F844313E
:10498000D4F84821120642EA1322394D00230120AF
:104990000293019000902846FDF7A9FC94F8573146
:1049A00084F8CC3394F8583184F8E03305F1580397
:1049B000C4F8C03305F16C03C4F8C43394F8403133
:1049C0002560032B02BF94F8593184F8F433803505
:1049D00094F85B3108BFC4F8045484F8B132F4E0B1
:1049E000244B0EE50233F5E46A6892033FF5F5AC1B
:1049F000204AF3E4EA6AE96AEB6AC2F30312C1F3FC
:104A0000082103F0070370B168681A4C10F4003FE6
:104A1000194808BF20469A40A1FB00010023FFF778
:104A2000A7FA7860EEE41448F5E7FEF70DF801E721
:104A3000FCF730FC00287FF443AF45E7FCF72AFC85
:104A4000002800F0548460E7002401400000024088
:104A5000007C0008EFBEADDE117C0008D80100200C
:104A6000000F00087866000800040048806600080F
:104A70002004002000127A0000093D004FF090420F
:104A8000666A3B68B6FBF3F6D36823F0300343F065
:104A90001003D360EB6823F4405343F48053EB607E
:104AA00094F84231022B03D094F84231032B02D107
:104AB0000120FDF745FD636A3A68B3FBF2F39B1BE7
:104AC000022B0BD8FDF757FB0028F4D094F84231A5
:104AD000032B24D094F84231032BECD0636A3A685C
:104AE000B3FBF2F39B1BB3F5FA7F1DD2FDF722FB5C
:104AF000FDF741FB00283FF408AFFDF742FB00281B
:104B00003FF403AF94F84231022B03D094F84231C2
:104B1000032BE3D1FCF7BEFB0028DFD1F5E6FCF761
:104B2000B9FB0028D6D0D9E7B8F101087FF49BAED5
:104B3000FDF718FB626A3B68B2FBF3F2636A3968FF
:104B4000B3FBF1F39B1A022B26D9B448FCF78EFF76
:104B50000021656A3B6894F89321B5FBF3F50220C8
:104B6000FDF772FA4FF41676FDF7E4FA636A3A68D5
:104B7000B3FBF2F35B1BB3FBF6F206FB1233C72B5E
:104B800094BF94F893010020FDF704F8FDF7F3FAC1
:104B90000028E9D0FEF769FAFDF7EDFA0028CDD13B
:104BA000D3E79F489F4DFDF7CBFD94F84231002B92
:104BB00040F0A6809C4A40239C492846FEF772F9A3
:104BC000974BC4F8C033C4F8C453994B994D45F280
:104BD00055521A605A68022161F302025A604FF47A
:104BE000FA629A604CF6CC421A600026FDF7A2FAEF
:104BF000FDF7D1FDD5F8083473B9D5F87C315BB138
:104C0000D5F87C21B5F880319BB29A4240F2918070
:104C1000D5F87C31C5F80834D5F8C00303685B6863
:104C20009847D5F8C40303685B689847D5F804042F
:104C300010B103685B689847D5F8C00395F86E21FA
:104C4000036802F0FF019B690491002A40F0FC8098
:104C5000002E40F0D0809847002840F09080002639
:104C60003746B24695F843319BB1B819B0F57A7F13
:104C7000A8BF4FF47A70F71B06466F48B7F57A7FE6
:104C8000A8BF4FF47A778642B8BF06468742B8BFBE
:104C9000074695F86B3113B133463E461F4695F8EB
:104CA0006C3195F86D21002B14BF4FF0FF330123B9
:104CB000002A049A14BF4FF0FF300120002A40F070
:104CC000E080D5F8C00303689B699847002840F04E
:104CD000D680D5F8C40303689B699847002840F044
:104CE000CE8056480021FCF7C1FE0846FDF7B0F81B
:104CF000FCF7D6FE4E4B049E4AF6AA221A6075E7D0
:104D000094F84231022BD8B27FF45AAFFDF718FC69
:104D10004FF480434FF090424EE794F84231032B1A
:104D20003FF417AEA0F27C40FCF7A0FE32E7444A05
:104D30002BE6D5F89C12D5F80C34D5F810248B420C
:104D400038BF0B469142C5F80C3408D33D486A6A17
:104D50000068B2FBF0F240F6B73082420CD9B5F8E9
:104D60008021D5F87C0192B26432B3FBF2F30133B7
:104D7000DBB24343C5F80834C5F810144CE7D5F846
:104D8000C40303689B69984700283FF468AFD5F8CF
:104D9000C00303689B68984700287FF460AFD5F88C
:104DA000C40303689B68984700287FF458AFD5F880
:104DB000040490B9D4F8C00303689B68984706467A
:104DC000D4F8C40303689B6898470746D4F80404E2
:104DD000E8B9079B0493824644E703689B699847B8
:104DE00000283FF43CAFD5F8040403689B6898475B
:104DF0000028DFD033E7984700283FF430AFD5F8DC
:104E0000C40303689B6998470028D3D127E7036848
:104E10009B689847079B0493824623E77B660008BC
:104E20004C040020600400200004004800100040F2
:104E300000300040B000002018FCFFFF8066000832
:104E4000A0680600000000209847049040B1D5F803
:104E5000C00303689B68984706468246074618E7E2
:104E6000D5F8C40303689B699847049010B1D5F83E
:104E7000C403EEE7DDF810A05746564609E7AC48F4
:104E800030E7474303FB06FB5BEA07030CBFA94877
:104E9000A9480693FCF7EAFDD4F86001D4F86461F0
:104EA000D4F86431360446EA1046D4F868010004A8
:104EB00040EA134094F87731361A03F0FF08D3B173
:104EC00094F87731D4F89802834250D294F877114D
:104ED00094F87721D4F86061D4F864311B0443EA74
:104EE0001643012601960096F3401432FCF70BFCA2
:104EF000DDF810800646D5F87831A3B1394658461A
:104F0000FCF7CEFDB5F8AE31B3420CDA002E3046D8
:104F1000B8BFF01DA6EBE0008342B8BF48F001081F
:104F20005FFA88F81E46D5F808241AB3D5F89C0213
:104F300082421FD9B5F882319BB2642B88BFB5F885
:104F4000821100968CBF89B2642101230193511A0A
:104F50000023FCF7D8FB794BD5F814249A42064677
:104F600001D0C5F81434B8F1000F0ED00AE04FF0AC
:104F70000008C0E7B8F1000F07D0D5F81424704B33
:104F80009A4202D06E4BC5F8143495F85931002B73
:104F900071D095F8593103F0FF0013B105EB4000D3
:104FA00040881D210123CDE900134FF4E062002366
:104FB000BF21FCF7A8FB0A2390FBF3F0C3B20593D3
:104FC00095F85A3173B195F85A2102F0FF0312B1E6
:104FD00005EB43035B88B3F5787F34BF00230123DF
:104FE00085F8C0314FF0010900238BEAEB701946B8
:104FF000CDE900694FF47A72A0EBEB70FCF783FB0C
:105000000023804687EAE7701946CDE90069A0EBE6
:10501000E770FCF778FB95F84031032B814608EBED
:1050200000017DD1012301938AEAEA700023194629
:105030000096A0EBEA70FCF766FB95F89031012B27
:105040001CD1FCF719FE3F4B1FFA88F25A6395F802
:105050009131012B2ED1FCF721FE3A4B1FFA89F238
:105060009A6395F89231012B40D1FCF729FE354B1C
:1050700080B2D8633EE695F840019FE795F89031FD
:10508000022B02D1FCF768FEDDE795F89031032B87
:105090000BD1FCF724FED5F86021D5F864311B0450
:1050A00043EA1243A3EB0808CDE7FCF78EFE4FF06E
:1050B0000008C8E795F89131022B02D1FCF760FE99
:1050C000CBE795F89131032B0BD1FCF71DFED5F8FA
:1050D0006021D5F864311B0443EA1243A3EB0909AC
:1050E000BBE7FCF789FE4FF00009B6E795F892316F
:1050F000022B02D1FCF758FEB9E795F89231032B49
:105100000AD1FCF717FED5F86021D5F864311B04ED
:1051100043EA1243181AAAE7FCF786FE0020A6E726
:10512000069B8BB91A4619460020FCF7E1FEE1E523
:1051300082660008856600088A6600088F66000897
:1051400094660008002C0140059B002B54D1BBF154
:10515000000F00F3D58024D1069B002B00F3D380F1
:10516000002F20DA00234FF001094FF47A7219461C
:10517000CDE90069CBF10000FCF7C5FA1FFA86F80B
:105180000023A8EB000A1946CDE900697842FCF734
:10519000BAFA1FFA8AFAA8EB000292B251464046C8
:1051A000C3E7002FDEDD4FF0030AB14202DDBAF1A2
:1051B000010A07D1BB4589B21ADC0A461FFA88F0FA
:1051C0000021B2E70123019300230A464046194615
:1051D0000096FCF798FA01230193002380461946B4
:1051E00048460096FCF78FFA814608EB0001DCE7A1
:1051F00000221FFA89F098E706F1010A0AEBDA7A31
:105200004FEA6A030693059B022BCAF34F0A32D179
:105210000123069A01930023194600924046324624
:10522000FCF771FA01230193069B0093002380464B
:1052300019464846FCF767FA80454346A8BF03462F
:10524000BBF1000F0BDB002F12DB0AEB00020AEBB5
:105250000801AAEB030092B289B280B265E7002F81
:1052600009DCAAEB0002AAEB08010AEB0300F2E753
:10527000BBF1000FF5D04FF001084FF47A722D49C1
:105280000023CDE900685846FCF73DFA29498146DC
:10529000CDE9006800233846FCF735FA1FFA89F19A
:1052A00082B2504641E7012384F8D031FFF72DBB8D
:1052B000022341F28736656A84F8D0313B68B5FB3A
:1052C000F3F5FCF737FFFCF756FF00283FF41DAB62
:1052D000FCF757FF00287FF418AB94F84231022BFB
:1052E0003FF4ACAB94F84231032B3FF4A7AB636AB5
:1052F0003A68B3FBF2F35B1BB342E2D9FBF7B9FFA9
:10530000002FFFF650AF00234FF001084FF47A72E0
:105310001946CDE900685846FCF7F5F900238146A7
:105320001946CDE900683846FCF7EDF91FFA89F116
:1053300082B2F9E618FCFFFF1F49204B01F5C46259
:10534000C3F89C231E4AC3F8A02301F5C9604FF09F
:105350009042C3F8A423C3F8B003042201F274609E
:10536000C3F8A823C3F8C8030022C3F8DC03C3F8BA
:10537000F00301F5D46001F2EC61C3F8AC23C3F88B
:10538000D023A3F8D423C3F8D823C3F8E423A3F885
:10539000E823C3F8EC23C3F8F823A3F8FC23C3F8ED
:1053A0000024C3F8700383F88823C3F88C23C3F860
:1053B000181483F81C24704784600008B000002093
:1053C000004001407FB500241023CDE9023403687A
:1053D00015469E6912686B46CDE90044B0479DF8BA
:1053E000043003F00603062B03BF009B2B60012053
:1053F000204604B070BD0098904214BF01200620E2
:105400007047000010B5034B0360044600F0D1F86C
:10541000204610BDA46A000810B50446FFF7F2FF4D
:105420002046082100F042F8204610BD2DE9F04149
:105430001F46DDE90834DDF8188098450646154614
:1054400007D1079900F0B8F818B165710020BDE8E0
:10545000F0813946304600F0AFF80028F6D001233D
:10546000C4F800802571A371F0E738B515461C46D5
:1054700000F0A2F820B10823E36006232560237121
:1054800038BD2DE9F04105460C4616461F4600F092
:1054900093F848B9032F07D8236832462946204697
:1054A0005B69BDE8F0411847BDE8F08100F09AB8AB
:1054B00010B5034B03600446FFF7A4FF204610BD60
:1054C000046B000810B50446FFF7F2FF20460C21DC
:1054D000FFF7ECFF204610BD2DE9F041DDF8188004
:1054E000904506460F4615461C460BD0B06803682B
:1054F000CDF818801E6A2A4623463946B446BDE8D0
:10550000F0416047194600F057F80028EED0062019
:10551000BDE8F0812DE9F14F0D461946DDE90A4B52
:10552000DDE90CA681461746984600F045F890B193
:10553000002D3460377109DB2C44A2450CBF0624D2
:105540000124B471002001B0BDE8F08F0235F9D11B
:105550000123B371F6E7544506D15946484600F099
:105560002BF808B17771EDE7D9F808000368CDE9A9
:105570000CA6CDE90A4BDC693A4643462946A446C7
:1055800001B0BDE8F04F60472DE9F04107460C46F9
:1055900015461E46FFF769FF48B9B86803689F695A
:1055A0002A4633462146BC46BDE8F0416047BDE887
:1055B000F081704700207047814208B50ED04068E6
:1055C00003782A2B0CD049680B782A2B08BF0131AD
:1055D000FEF76EFCB0FA80F0400908BD0120FCE740
:1055E0000020FAE700F02EB80A22002100F0AAB944
:1055F000014B1868704700BF3000002070B50D4D9A
:105600000D4C641BA4100026A64209D10B4D0C4C76
:1056100000F02CFD641BA4100026A64205D170BD2D
:1056200055F8043B98470136EEE755F8043B984798
:105630000136F2E77C6C00087C6C00087C6C00088A
:10564000846C0008024B0146186800F011B800BFD6
:10565000300000200A44914200F1FF3300D170472E
:1056600010B511F8014B03F8014F9142F9D110BD6B
:1056700038B50546002941D051F8043C0C1F002BD9
:10568000B8BFE41800F0A2F91D4A136833B963608B
:1056900014602846BDE8384000F09EB9A34208D9FE
:1056A000206821188B4201BF19685B6809182160C6
:1056B000EDE71A465B680BB1A342FAD9116850189E
:1056C000A0420BD120680144501883421160E0D100
:1056D00018685B68536001441160DAE702D90C2353
:1056E0002B60D6E7206821188B4204BF19685B68DD
:1056F000636004BF091821605460CAE738BD00BF69
:10570000E404002070B50E4E0C463168054611B910
:1057100000F08CF830602146284600F087F8431CE2
:105720000AD0C41C24F00304A04207D0211A284642
:1057300000F07CF8013001D14FF0FF34204670BDFD
:10574000E80400202DE9F041CD1C25F003050835C3
:105750000C2D38BF0C25002D074601DBA94205D9C9
:105760000C233B6000263046BDE8F0812E4E00F051
:105770002DF933681C4634BB29463846FFF7C2FF73
:10578000431C04464DD134682646002E40D1236880
:105790003146384604EB030800F048F880453AD11A
:1057A000216803356D1A25F0030508350C2D38BF27
:1057B0000C2529463846FFF7A5FF01302BD023687A
:1057C0002B4423600EE02268521B1ED40B2A16D9EC
:1057D0006119A342256018BF5960636808BF316032
:1057E00062514B60384604F10B0600F0F5F826F0E4
:1057F0000706231DF21AB6D09B1BA350B3E76268BD
:10580000A3420CBF32605A60ECE723466468B2E7FB
:1058100034467668B9E70C233B60384600F0DCF884
:10582000A1E72560DEE700BFE404002038B5064D9F
:105830000023044608462B60FEF7B0FA431C02D151
:105840002B6803B1236038BDEC040020012B2DE947
:10585000F047804601D0242B06D9FFF7C9FE162356
:1058600003600020BDE8F087354F0D46284615F847
:10587000014BE65D16F00806F8D12D2C2FD12C78BF
:105880000126851C002B57D0102B09D1302C07D1B5
:10589000287800F0DF00582849D16C7810230235B1
:1058A00006F1004E0EF1FF3E0027BEFBF3F938462D
:1058B00003FB19EAA4F1300CBCF1090F14D86446BB
:1058C000A34222DD002F1DDB81451BD301D1A24560
:1058D00018DB00FB0340012715F8014BEAE72B2CEE
:1058E00004BF2C78851CCDE7A4F1410CBCF1190F45
:1058F00001D8373CE4E7A4F1610CBCF1190F04D8DE
:10590000573CDDE74FF0FF37E6E7002F07DA2223A9
:10591000C8F800307046002AA4D0691E05E006B120
:105920004042002A9ED0002FF7D111609AE7302420
:10593000002BB5D10823B3E7302CA9D00A23AFE759
:105940003E6B000813460A46014602480068FFF70E
:105950007DBF00BF3000002030B51446002C9BB046
:1059600005461A4605DA8B2303604FF0FF301BB063
:1059700030BD4FF40273ADF80C3014BF04F1FF33A7
:105980002346029305934FF6FF7300910491ADF8FF
:105990000E3069461E9B00F081F8431CBCBF8B2370
:1059A0002B60002CE3D0009B00221A70DFE7000080
:1059B00007B5009313460A46014603480068FFF7FF
:1059C000CBFF03B05DF804FB30000020014800F07D
:1059D000F9BA00BFF0040020014800F0F4BA00BF9B
:1059E000F00400202DE9F0478E689E4282460C4666
:1059F00090461F4638D88A8912F4906F32D02568B5
:105A00000969A5EB0109656905EB450505EBD57548
:105A100001334B446D109D4238BF1D46530531D5AF
:105A20002946FFF78FFE064650B90C23CAF800300E
:105A3000A38943F04003A3814FF0FF30BDE8F08716
:105A400021694A46FFF706FEA38923F4906343F0D9
:105A50008003A381266165614E44A5EB090526609C
:105A6000A5603E46BE4200D93E46206832464146C9
:105A700000F0AAFAA3689B1BA36023683344236049
:105A80000020DBE72A4600F0B9FA06460028E1D1FB
:105A900021695046FFF7ECFDC7E700002DE9F04F04
:105AA00098468B891B069DB007460D4614460ED5B9
:105AB0000B6963B94021FFF745FE2860286120B9D2
:105AC0000C233B604FF0FF30D1E040236B6100239B
:105AD000099320238DF82930CDF80C803023DFF88E
:105AE000A8818DF82A304FF0010923469A4613F811
:105AF000012B0AB1252AF9D1BAEB040B0BD05B4676
:105B0000224629463846FFF76DFF013000F0AA8093
:105B1000099A5A4409929AF80030002B00F0A280AA
:105B200000234FF0FF32CDE905230AF1010A049367
:105B300007938DF853301A935446052214F8011B2D
:105B40005148FEF7C5F9049AD8B9D00644BF2023BE
:105B50008DF85330110744BF2B238DF853309AF83A
:105B600000302A2B15D0079A544600204FF00A0C1B
:105B7000214611F8013B303B092B4ED9B0B10792B9
:105B800014E0A0EB080309FA03F313430493A246BD
:105B9000D2E7039B191D1B680391002BBBBF5B421F
:105BA00042F0020207930793B8BF049223782E2B8A
:105BB0000CD163782A2B35D1039B1A1D1B680392E5
:105BC000002BB8BF4FF0FF3302340593DFF8BCA0C1
:105BD000217803225046FEF77BF940B14023A0EB29
:105BE0000A0003FA00F0049B03430134049314F801
:105BF000011B27488DF828100622FEF769F90028B6
:105C000038D0244B1BBB039B073323F00703083317
:105C10000393099B3344099367E70CFB02320C465C
:105C20000120A5E700230134059319464FF00A0C23
:105C3000204610F8012B303A092A03D9002BC5D091
:105C40000591C3E70CFB012104460123F0E703ABF8
:105C500000932A46104B04A93846AFF30080421C3B
:105C60000646D6D1AB895B063FF52CAF09981DB02F
:105C7000BDE8F08F03AB00932A46074B04A93846D2
:105C800000F07AF8EBE700BF3E6C0008446C0008B7
:105C9000486C000800000000E55900082DE9F047B5
:105CA000164699468A680B69DDF820809342B8BF92
:105CB0001346336091F8432007460C460AB101337E
:105CC00033602368990642BF336802333360256826
:105CD00015F0060506D104F1190AE36832689B1A2B
:105CE000AB4226DC94F84320131E226818BF012320
:105CF00092062BD404F1430249463846C04701308E
:105D00001ED02368E568326803F00603042B08BF41
:105D1000AD1AA36822690CBF25EAE57500259342F8
:105D2000C4BF9B1AED1800261A34B5421AD10020C0
:105D300008E00123524649463846C047013003D1A6
:105D40004FF0FF30BDE8F0870135C6E7E1185A1C77
:105D5000302081F84300224494F8451082F8431023
:105D60000233C7E70123224649463846C04701307F
:105D7000E6D00136D9E700002DE9FF470F7E0C9DE4
:105D8000782F914680460C469A4601F1430207D887
:105D9000622F0AD8002F00F0D880582F00F0A3807F
:105DA00004F1420584F842703AE0A7F16303152B31
:105DB000F6D801A151F823F0115E0008255E000815
:105DC000A15D0008A15D0008A15D0008A15D0008BB
:105DD000255E0008A15D0008A15D0008A15D000826
:105DE000A15D0008315F0008555E0008135F0008E0
:105DF000A15D0008A15D0008535F0008A15D0008D7
:105E0000555E0008A15D0008A15D00081B5F000849
:105E10002B681A1D1B682A6004F1420584F8423081
:105E20000123A3E020682968060601F104030AD5CE
:105E30000E682B60002E03DA2D23764284F843305F
:105E40005E480A2319E00E682B6010F0400F18BF5F
:105E500036B2EFE72B682068191D2960010601D5CD
:105E60001E6802E04606FBD51E8854486F2F0CBF03
:105E700008230A23002184F843106568A560002DDB
:105E8000A2BF216821F0040121600EB9002D4DD080
:105E90001546B6FBF3F103FB1167C75D05F8017DFD
:105EA0003746BB420E46F4D9082B0BD12368DE07D8
:105EB00008D5236961689942DEBF302305F8013CAB
:105EC00005F1FF35521B2261CDF800A04B4603AA15
:105ED00021464046FFF7E2FE01304CD14FF0FF3043
:105EE00004B0BDE8F087354881F84570296823681B
:105EF00051F8046B29601D0614D5DF0744BF43F039
:105F0000200323601EB9236823F02003236010239D
:105F1000B0E7236843F0200323607823284884F8FF
:105F20004530E3E7590648BFB6B2E6E71546BBE79A
:105F30002B6826686169181D286035061B6801D525
:105F4000196002E07006FBD5198000232361154615
:105F5000BAE72B681A1D2A601D686268002128466E
:105F6000FDF7B6FF08B1401B606063682361002342
:105F700084F84330A8E723692A4649464046D0477B
:105F80000130ABD023689B0713D4E068039B984291
:105F9000B8BF1846A4E70123324649464046D047D9
:105FA00001309BD00135E36803995B1AAB42F2DC08
:105FB000EBE7002504F11906F5E700BF4F6C000878
:105FC000606C000870477047884210B501EB02040E
:105FD00002D98442234607D8431EA14208D011F8B3
:105FE000012B03F8012FF8E7024401468A4200D151
:105FF00010BD13F8014D02F8014DF7E72DE9F0410E
:10600000804614460E4621B9BDE8F0411146FFF71F
:1060100099BB2AB9FFF72CFB25462846BDE8F0813D
:1060200000F01BF88442074602D8B4EB500F12D898
:1060300021464046FFF786FB05460028EDD0BC42CE
:106040002246314628BF3A46FFF704FB3146404618
:10605000FFF70EFBE1E73546DFE751F8043C181F78
:10606000002BBCBF0B58C01870470000F8B500BF2C
:10607000F8BC08BC9E467047F8B500BFF8BC08BC29
:046080009E46704781
:1060840000D57FAAFE2B815429FC5683D702A87D14
:1060940052872DF8AC79D3067BAE04D18550FA2F04
:1060A400A471DB0E5A8F25F08D58F22773A60CD9F4
:1060B400F623895C08DD77A2DF0AA07521F45E8BE4
:1060C4009D48E23763B61CC9B461CB1E4A9F35E0D4
:1060D400CF1AB06531E44E9BE633994C18CD67B2C4
:1060E40039EC4693C712B86D10C56FBAEE3B9144B4
:1060F4006BBE14C19540EA3F42973DE8BC69C316A4
:10610400EF3A904511C46EBBC613B96C38ED479293
:10611400BD68C21743963CE99441EB3E6ABF15C083
:106124004B9E34E1B560CA1F62B71DC89C49E33673
:1061340019CC66B3E732984D30E54F9ACE1BB16463
:1061440072A70DD88C59F3265B8E24F1A570DA0F53
:1061540020F55F8ADE0BA17409DC76A3F722885D43
:10616400D603A97C28FD5782FF2A805501D47EAB33
:106174008451FB2E7AAF05D0AD78D20753862CF923
:10618400010200016348594452410000000000002C
:1061940000EFBEADDE0004030200010001000000B8
:1061A400006E000000000000000C0000000A000166
:1061B40002000000DC05F4010A008813000032002C
:1061C400000001000000000A000000B80B000000FD
:1061D4000000000000000000FE10F4016400000054
:1061E40000000000640000000000005000000000F7
:1061F400000000000000000000EFBEADDE00000063
:106204002A0A00007673706C69746D6F646500000F
:106214000000000000000000187C000801000000DD
:106224006C6F616462616C0000000000000000009B
:1062340000000000197C000801000000696E707500
:10624400746D6F6465000000000000000000000031
:106254001A7C00080100000074616E6B6D6978009F
:106264000000000000000000000000001B7C00088B
:106274000100000070686173656D617000000000CA
:1062840000000000000000001C7C00080100000069
:10629400626175640000000000000000000000005E
:1062A400000000001D7C0008040000006368616EAB
:1062B4006E656C5F3100000000000000000000000B
:1062C4002F7C0008010000006368616E6E656C5FDE
:1062D400320000000000000000000000307C0008D4
:1062E400010000006368616E6E656C5F6D6F6465CC
:1062F4000000000000000000317C000801000000E4
:106304006368616E6E656C5F6272616B650000004C
:1063140000000000327C0008010000006D6173740D
:1063240065725F61726D00000000000000000000F3
:10633400337C00080100000072635F6D6964000033
:10634400000000000000000000000000347C000891
:106354000200000072635F72616E676500000000F6
:106364000000000000000000367C0008020000006D
:1063740072635F646561647A6F6E6500000000009B
:1063840000000000387C00080200000070776D5F98
:10639400706572696F640000000000000000000076
:1063A4003A7C00080400000070776D5F64656164E6
:1063B40074696D6500000000000000003E7C000868
:1063C400040000006272616B696E670000000000E7
:1063D4000000000000000000427C000801000000F2
:1063E4006368616E73776170000000000000000054
:1063F40000000000437C000801000000666C697026
:106404003100000000000000000000000000000057
:10641400447C000801000000666C697032000000D2
:10642400000000000000000000000000457C00089F
:1064340001000000746965640000000000000000B1
:106444000000000000000000467C0008010000007D
:1064540061726D64757200000000000000000000AD
:1064640000000000477C00080400000064697361B8
:10647400726D74696D65000000000000000000008A
:106484004B7C00080400000074656D706C696D003D
:106494000000000000000000000000004F7C000825
:1064A40001000000637572726C696D0000000000E9
:1064B4000000000000000000507C00080400000000
:1064C400766F6C746C696D000000000000000000C1
:1064D40000000000547C00080400000063656C6C3C
:1064E4006D6178766F6C740000000000000000009D
:1064F400587C0008020000006C6F7762617474734A
:106504007472657463680000000000005A7C00081F
:1065140002000000766F6C7464697600000000006D
:106524000000000000000000217C000804000000BE
:10653400637572726F666673657400000000000014
:1065440000000000257C00080400000063757272DE
:106554007363616C6500000000000000000000002F
:10656400297C00080400000061646366696C74653A
:106574007200000000000000000000002D7C0008F4
:10658400020000006375726C696D6B70000000009E
:1065940000000000000000005C7C00080400000013
:1065A4006375726C696D6B69000000000000000087
:1065B40000000000607C0008040000006375726C39
:1065C400696D6B6400000000000000000000000022
:1065D400647C00080400000064697270776D5F31A8
:1065E400000000000000000000000000687C0008BB
:1065F4000100000064697270776D5F320000000072
:106604000000000000000000697C00080100000098
:1066140064697270776D5F33000000000000000051
:10662400000000006A7C000801000000746F6E65C1
:10663400766F6C0000000000000000000000000005
:106644006B7C000801000000000000000000000056
:106654000000000000000000000000000000000036
:10666400000000000000000000000000010203041C
:10667400060708092801002501220100250026013A
:106684000021072107002101210100230521050024
:1066940023012101000000000000000060680008E0
:1066A400412700087115000811180008A9150008F1
:1066B400B9150008F1150008091600084516000868
:1066C4000000000054680008911100088B140008B1
:1066D40001180008C1140008D114000809150008A5
:1066E400211500085D150008A52E00080000000013
:1066F4004868000891110008A92A0008B117000889
:10670400AD120008C1120008F91200081D13000898
:1067140021130008A1120008000000003C680008D2
:10672400A1190008711100085D1A00081919000860
:10673400C518000893110008F5110008591A00083B
:106744001D19000841190008151A0008491200080B
:10675400991300087D130008B5130008EF22000800
:10676400491400080000000030680008312D0008BA
:10677400711100082913000819190008C518000828
:1067840093110008F5110008591A00081D19000892
:1067940041190008151A0008491200086D12000872
:1067A40039130008451300081D2E0008364365728E
:1067B40065616C003952634368616E6E656C0031CB
:1067C4003943657265616C5F54696D6572426974C1
:1067D40062616E6700000000A46A0008B0670008E8
:1067E400313243657265616C5F55534152540031D7
:1067F40031437273664368616E6E656C0031355265
:106804006350756C73655F4770696F4973720000FC
:10681400A46A0008B86700083136526350756C7377
:10682400655F496E7075744361700000046B000805
:10683400C3670008DC670008046B0008E46700080D
:10684400DC670008046B0008F3670008146800089C
:10685400046B00080168000814680008046B000851
:106864001C680008146800087265616400616C6C3F
:106874002073657474696E67733A0D0A0D0A0025F6
:106884007320256C690D0A0076657273696F6E005A
:106894000D0A5625752E2575204520257520485747
:1068A4002030782530386C58204E3A25730D0A0074
:1068B400666163746F72797265736574000D0A663C
:1068C4006163746F727920726573657420646F6E8E
:1068D40065007265626F6F74000D0A7265626F6F96
:1068E40074696E672E2E2E0D0A00687774657374B2
:1068F400005B256C755D207261772D7620257520EF
:106904002C2063616C632D7620256C75202C2076F9
:106914002D64697620256C750D0A005B256C755D08
:10692400207261772D63202575202C2063616C63B0
:106934002D6320256C75202C2000632D6F666673F3
:10694400657420256C75202C20632D7363616C6540
:1069540020256C75202C207077722025750D0A0077
:106964005B256C755D2070686173652D6D617020A9
:106974002575202C207077722025750D0A005B2563
:106984006C755D20707772202575203B204454205F
:10699400256C75203B202870726573732027762739
:1069A40020746F2073746F70290D0A005B256C7559
:1069B4005D20707265737320277627206F722027FD
:1069C4006327206F7220277027206F722027642787
:1069D4000D0A000D0A73657373696F6E20656E642A
:1069E4002C20766F6C7464697620256C75202C20BD
:1069F40000637572726F666673657420256C75200A
:106A04002C20637572727363616C6520256C75202C
:106A14002C2070776D5F6465616474696D652025F1
:106A24006C75202C200070686173656D6170202581
:106A340064200D0A286E6F742073617665642021CA
:106A44002121290D0A000D0A4552524F5220434D6F
:106A5400442022257322000D0A4F4B202825732041
:106A64003D20256C69290000046B0008786A000841
:106A7400286B00084E31305F5F6378786162697615
:106A84003131375F5F636C6173735F747970655F15
:106A9400696E666F45000000000000006C6A000823
:106AA4000554000819540008B5550008B5550008E8
:106AB40083540008C55300086B5400082D54000883
:106AC400F7530008046B0008D46A00086C6A0008D5
:106AD4004E31305F5F637878616269763132305F5E
:106AE4005F73695F636C6173735F747970655F6909
:106AF4006E666F450000000000000000C86A0008D0
:106B0400B1540008C5540008B5550008B55500082F
